S01B00004432315F544553545F424F4F544C4F414445522E7372656379
S1130000682F0020512300004D2300004D230000E1
S113001000000000000000000000000000000000DC
S11300200000000000000000000000004D2300005C
S113003000000000000000004D2300004D230000DC
S11300404D2300004D2300004D2300004D230000EC
S11300504D2300004D230000150100004D23000036
S11300604D2300004D2300004D2300004D230000CC
S11300704D2300004D2300004D2300004D230000BC
S11300804D2300004D2300004D2300004D230000AC
S11300904D2300004D2300004D2300004D2300009C
S11300A04D2300004D2300004D2300004D2300008C
S11300B00000000010B5064C2378002B07D1054B37
S11300C0002B02D0044800E000BF0123237010BDC0
S11300D0C009002000000000548D0000084B10B53A
S11300E0002B03D00749084800E000BF0748036815
S11300F0002B00D110BD064B002BFBD09847F9E72D
S113010000000000C4090020548D0000548D00003C
S11301100000000010B5264B984726490B8C0F228F
S113012013409B002448185803781A403F23CA54AC
S11301300F33CA5CD2B203781B012049C91849881D
S11301401F4CE3185B88CB1A4361D3070FD50121F9
S11301504E23184AD1543E3B4374037CDB0703D53A
S11301604368002B00D09847164B984710BD93075F
S11301700DD502214E230F4AD15400234374037C2E
S11301809B07F1D58368002BEED09847ECE7530723
S1130190EAD504214E23074AD154483B4374037CD7
S11301A05B07E1D5C368002BDED09847DCE7C04687
S11301B07514000000480041DC090020800B002079
S11301C0F0090020B514000010B51E4AD3690421BB
S11301D00B43D3611C4B2022FF321A831A7D052363
S11301E0D20701D4180010BD03781B02C02292006C
S11301F013404178C901FF220A4013438178490022
S11302001E220A401343C27892048021C9020A4084
S1130210134302791204C02189020A4013430A4A93
S1130220536093685B035B0F084908249C400C806F
S113023093684B8043780B71138BDB05DB0F1B0139
S1130240D0E7C0460004004000400041400A0020BE
S113025030B50400224A1088538843438B4206D2A7
S11302608022920118201F4BCB1893420ED81E4BAC
S11302705D688022D2022A435A602022FF321A8308
S11302801B7DDB0703D4184B5D60052030BD452C76
S113029022D8A300154AD3589F46134B1B8BDB056A
S11302A003D5114B5D601020F0E7890849000E4B1F
S11302B0D96103E0890849000B4BD961A5200002EC
S11302C00443094B1C80190001220B7D1342FCD00E
S11302D0054B5D600020D9E7034B5D601720D5E72F
S11302E0400A002000C07FFF00400041AC860000AF
S11302F0F8B5254B1D885B886B431824834201D2D3
S11303002000F8BD6B1E1842FAD1013C9542F7D388
S11303101E4B1B7D123CDB07F2D51D4C1B4B1C8076
S11303201D0001242B7D2342FCD02024FF34174BD5
S11303301C83002A22D0012305009D430023571E5D
S113034009E0CE187678360234432C8002339BB20F
S113035002359A4204D9CC5CBB42F2DBA4B2F4E786
S1130360094B1B790024002BCAD13F2AC8D800228C
S113037001000420074B98470400C1E7024B1B7996
S11303800024002BF3D0BBE7400A002000400041CA
S113039044A5FFFF5102000070B5184B1D885B880F
S11303A06B431824834201D2200070BD6B1E184297
S11303B0FAD1013C9542F7D3114B1B7D123CDB076C
S11303C0F2D52024FF340E4B1C83002A14D00123C1
S11303D098430023561E04E002339BB202309A4233
S11303E008D90488A4B2CC54B342F5DACD18240A4F
S11303F06C70F1E70024D7E70024D5E7400A002019
S113040000400041134B1A885B88534318218342F0
S113041001D2080070479200013A1042F9D10E4B04
S11304201B7D1339DB07F4D50B4B2022FF321A83D3
S113043080084000D861094A1A80190001220B7D06
S11304401342FCD0044B198B1C200140481E8141EF
S11304508900DEE7400A00200040004102A5FFFFBA
S1130460134B2022FF321A8399684A03520F082340
S11304709340037041800F4B1B885B065B0F072B77
S113048010D00622D21A042393404360094B1B88E0
S113049007221340072B08D00722D21A04239340C3
S11304A08360704700234360F0E700238360F8E72C
S11304B0004000410040800001680722CB691A42D5
S11304C0FCD17047F0B5D6464F464646C0B58AB013
S11304D006000F00140031600800974B9847974AB4
S11304E0116A851C0123AB400B43136209A9237BCA
S11304F00B701430C5B22800914B98472800914BDB
S11305009847207B0021904B98473B681C209B0711
S113051005D50AB01CBC90469946A246F0BD3B687E
S11305201738DB07F5D414233B603368984618006A
S1130530814B98470500802308AA13700023537049
S1130540012208A98A70CB70E069276A002800D1CB
S1130550AFE008AB1870022308AA5370000CC0B2B5
S113056011007A4B9847002F00D1A7E008AB1F7009
S1130570022308AA53703F0CF8B21100734B98473A
S1130580A38AF380E38A3381237E8022002B04D163
S11305906F4B9B789B07DB0FDA01A16823690B4340
S11305A013432422A25C002A02D08022D2051343E2
S11305B0A26A13432C22A25C002A03D18022920453
S11305C0914202D18022120513432D22A25C002AFB
S11305D002D08022120413432E22A25C002A02D0ED
S11305E08022D203134342461268134342461360E7
S11305F080235B00536028001430C0B2554B9847E9
S11306000790FA239B0022685A43914663689A46EE
S1130610514DA847009001914B465800A8470290BD
S11306200391208EA847049005914C4F4C4A4D4BA2
S113063000980199B84702000B0004980599B8473F
S1130640494E0022494BB047049005914846A847BB
S113065002000B0004980599B84702000B00444DB2
S113066000980199A847029A039BB0470022414B86
S1130670A847029A039B404DA847404B9847050062
S113068080239B04A2689A421ED003004020FF2DC1
S113069000D93EE700240020FF251D402406254301
S11306A00004FF231B04184005434346DD6000207B
S11306B02FE700214046324B98474AE70121404644
S11306C02F4B9847070051E7FA26B60053465E437E
S11306D00098019902000B00234CA047009001915F
S11306E030001D4B98470022264BB84702000B00F0
S11306F000980199204CA04700221E4B1C4CA04797
S11307001E4B9847041E0CD0310007981E4B984787
S11307100238001B2B00FF2D0CD8FF28BCD9402029
S1130720F7E67100481E079B9C466044164B9847A9
S11307300138EFE74020ECE67D180000000400409B
S1130740F521000069210000B9160000ED22000027
S11307500020004111220000BD3F000029340000A8
S113076095D626E80B2E113EA12700000000244058
S1130770293900000000F03FC12D0000553F000062
S113078005170000000008403526000003681A7EA3
S1130790920707D502221A765B8B9B074120DB1751
S11307A0184070475A8B520706D55968C0229202E6
S11307B00A435A601820F4E70020F2E730B50268D3
S11307C0002301240225117E21420BD1117E2942EE
S11307D006D101339BB201899942F4D8122002E078
S11307E0002000E0002030BD10B50468626880235A
S11307F0DB02134363606162024B98470123237653
S113080010BDC046BD070000F0B5DE4657464E4653
S11308104546E0B583B00600894605684C882B68D8
S11308201B01DB0F9A464B7A002B2BD16B68584A7D
S113083013406B604B461B7A002B27D14B461B8819
S11308405B004A46527A92031343012213436B62BC
S11308503000504B984701905346002B03D04B4631
S11308605B88012B3BD06B68494A13406B60019B4A
S1130870002B3AD0019803B03CBC90469946A2465E
S1130880AB46F0BD897A444B9847CFE74B461B886B
S11308905B004A46527A92031343802212021343A6
S11308A06B6230003B4B984701906B68384A1340A9
S11308B06B600028DED13000384B98470190002847
S11308C0D8D14B461B881B0A782213435B004A4647
S11308D0527A920301210A4313436B62B8E76A68B0
S11308E08023DB0213436B60C1E730002B4B984736
S11308F001900028BED1013CA4B28046284B9B46FF
S113090015E0012C20D03000264B984743465F1C4D
S1130910BFB22823EB5C4A46526841465354300028
S11309201C4B9847013CA4B2002815D1B8465C453D
S113093014D06B8B9B0627D5F37A002BE3D0534658
S1130940002BDED1002CDED16A688023DB02134346
S11309506B60013CA4B2EAE7B8460190B37A002B7D
S113096009D130000F4B98472823EA5C4B465B685B
S113097041465A547EE730000A4B98476A68C023C0
S11309809B0213436B60ECE74123019372E7C0467B
S1130990FFFFFBFFBD070000E90700008D07000013
S11309A0FFFF0000B9040000F0B5DE4657464E468E
S11309B04546E0B583B006000F0005684C88324B0D
S11309C098477B7A002B1DD16B68304A13406B60CB
S11309D03B7A002B1BD03B885B007A7A920313434B
S11309E08022120213436B623000294B9847019016
S11309F0002813D0019803B03CBC90469946A24607
S1130A00AB46F0BDB97A3000224B9847DCE73B880F
S1130A105B007A7A920313436B62E5E730001E4B66
S1130A209847031E0190E5D1A0460024203399463F
S1130A30154B9B46164B9A46444515D06B8B4A463C
S1130A4013421DD03000D8477B681A5D2823EA542E
S1130A503000D047002806D16B8B01345B07EBD5FF
S1130A601E23019300E00190B37A002BC2D0300022
S1130A70054B98476A68C0239B0213436B60B9E730
S1130A8041230193B6E7C046B9040000FFFFFBFF12
S1130A90BD070000E90700008D07000010B5012321
S1130AA08372C372014B984710BDC0460908000009
S1130AB010B5002383720133C372014B984710BDF4
S1130AC00908000010B501238372C372014B9847D3
S1130AD010BDC046A909000010B50023837201337C
S1130AE0C372014B984710BDA9090000F0B5CE466A
S1130AF0474680B585B0304C502323702F4D656038
S1130B00B0339946238100272F7009236B70063B6D
S1130B10AB70012203212000294B984698476A466E
S1130B20284B43CB43C21B681360237801229343B1
S1130B3023702F706F7002212000C0472378012298
S1130B40134323700122494620001F4B98471F4A34
S1130B501F492048204B98470024204E1D4D1E4F0E
S1130B606B46E25C31002800B8470134102CF7D101
S1130B701B491848184B9847104D0027164B9846A8
S1130B806B46FA5C17491348C0470024124E2A5D8D
S1130B9015491048B0470134102CF8D110490D48BC
S1130BA00D4B984701371035102FE9D105B00CBC17
S1130BB090469946F0BDC046D00B0020DC0B0020C7
S1130BC0ED0B0000C4870000910C0000AC8800000D
S1130BD0D4870000DC0C002071130000D8870000CB
S1130BE0A0880000E0870000E8870000F8B5040052
S1130BF00D0016001E4B58680A0000211D4B984733
S1130C00291E08DD00231A486268D25C4768FA543A
S1130C1001338B42F8DB164B22781A805D80002E5C
S1130C2012D11D00144C154E29002000B047002895
S1130C3006D0134A1368591C1160124A9342F3DD1B
S1130C4000220F4B1A6011E0094D0B4C0E4E290087
S1130C502000B047002806D0094A1368591C1160C7
S1130C600A4A9342F3DD0022054B1A60F8BDC046E0
S1130C70E80C002035410000F40D0020D90A0000E2
S1130C80480A0020E7030000C50A0000CF0700005F
S1130C90F0B583B005000F0001911600114C124805
S1130CA060600A000021114B98472B7823806780ED
S1130CB0002E0ED00B4E0E4C0E4F31002000B847C4
S1130CC00028FAD16868019A07490B4B984703B08A
S1130CD0F0BD044E064C094F31002000B8470028EF
S1130CE0FAD1EFE7E80C0020F40C002035410000B5
S1130CF0F40D00209D0A0000B1400000B10A00007C
S1130D0030B58FB001AB002203921A731A7680219A
S1130D108903059101214942D982998225315A5486
S1130D200B9208315A5401315A5401315A54A931A1
S1130D3019861849089118490991C8214900019157
S1130D400292164B8D39FF391980154959600221D9
S1130D5059801A72134D144C01AA14492800A04753
S1130D600028F9D10F4B1A680721D3691942FCD125
S1130D70136802210B4313600A4BDC880023102004
S1130D80518B014204D10133A342F9D3102353837D
S1130D900FB030BD0200100002001100E80C00206A
S1130DA0F40C0020F40D0020C5040000000C0042E7
S1130DB070B50402034E044D73681819A84705283A
S1130DC0FAD070BD4C0A002005040000F0B5DE46E0
S1130DD057464E464546E0B583B04D4B1B89002B24
S1130DE000D18FE000254A4B9A461F0027E0019866
S1130DF0484B98470434A4B2454B1B89A34218D9E5
S1130E00013B9C42F6D07A68A301D35CFF2BF1D05E
S1130E109E42EFD14B46D35C4146515C9942E6D0A9
S1130E205946525C9A42E2D0A008C0B2394B984766
S1130E30E0E70435ADB2364B1B899D4217D2AB01B6
S1130E40984653465B6842469E5CFF2EF1D02C1DAB
S1130E50A4B22F4B1B899C4209D280224244914662
S1130E60402242449346AA08D2B20192C8E7002B1A
S1130E7043D0274A977A516800225E1E244D04E02D
S1130E800132403190B298420AD29642F8D00878A2
S1130E9084B2FF2CF4D0BC42F2D22818C272EFE71D
S1130EA03F2087221A4988549D081FD04C6804218A
S1130EB00027013B13E0013292B2914207D09A42DB
S1130EC0F9D09001005DFF28F5D00026F3E7002E4D
S1130ED009D10137BFB2043189B2BD4206D00A1F1D
S1130EE092B20126EBE78723094AD75403B03CBCEE
S1130EF090469946A246AB46F0BD3F218723044A5B
S1130F00D154F3E73F218723014AD154EEE7C04689
S1130F104C0A0020B10D0000F8B50D008401054F06
S1130F20054E7B68181940222900B0470528F8D0DF
S1130F30F8BDC0464C0A002099030000F8B50D0026
S1130F408401054F054E7B68181940222900B047DB
S1130F500528F8D0F8BDC0464C0A0020F102000074
S1130F6070B58401044E054D7368191900220420DC
S1130F70A8470528F8D070BD4C0A00205102000093
S1130F8010B598B016AB0021197001225A702E4A80
S1130F905268D206120F9A70D97019712B4C16A888
S1130FA0A0470528FBD013A8294B9847149B16206B
S1130FB00B2B01D818B010BD264C23811A00083A17
S1130FC05208A2721B049B0A5B428022D2029446FE
S1130FD0634463600022C823E2541F4B984787236D
S1130FE0E35C1A203F2BE5D06A461C4B13CB13C29B
S1130FF0184B1889013880B21100194B9847039B8C
S1131000009A934219D1049B019A934217D1059BEC
S1131010029A934215D103ABDB7B1020012BC9D17B
S113102003AB1B7B012BC5D103AB5B7B002BC1D175
S11310300122084B1A700020BCE71A20BAE71A20D4
S1131040B8E71A20B6E7C04600400041C9010000D5
S1131050610400004C0A0020CD0D0000F087000060
S1131060190F000070B594B02F4C00228723E2546E
S113107000202E4B98472589042D25D900260424C9
S113108019E0A008C0B2294B984704AD4022FF21C3
S11310902800274B98472E7029002000254B98479D
S11310A02000254B98470136B6B20134A4B21E4B3A
S11310B01D89A54208D9013DAC42F6D00323234043
S11310C0DFD0012BF1D8E0E701AE1C4B320013CB8B
S11310D013C204AC4022FF212000154B9847019B0A
S11310E0049373686360B368A3600123E373237399
S11310F000236373A373013DEB17032018404519C4
S1131100AD10E8B2094B9847074D2889013880B2E1
S11311102100084B98472889013880B2064B98472C
S1131120074B984714B070BD4C0A0020B10D000065
S1131130354100003D0F0000610F0000F087000002
S1131140CD0D000010B590B00C00154B1A781F237C
S1131150002A02D1180010B010BD114B9A7A18233E
S11311608242F7D9B0330E4AD35C002B03D08823D4
S1131170D35C83420CD00A4B1818C07A6946094BD9
S113118098473C2201A92000074B98470023E1E738
S11311903C2203498C312000034B98470023D9E7B4
S11311A04C0A0020190F0000B140000010B5C823FC
S11311B0084AD35C002B01D1002010BD1400882301
S11311C0D35CD318D87A044B98470022C823E2543E
S11311D0F2E7C0464C0A0020610F0000F0B5DE467D
S11311E057464E464546E0B587B0040000915A4B39
S11311F01B781F20002B06D107B03CBC90469946B3
S1131200A246AB46F0BD544B9B7A0738A342F3D9B0
S1131210C823514AD35C002B05D08823D35CA34256
S113122001D04E4B98474C4B1B19DE7A03233100F7
S11312309943494B5868B3011B5CFF2B47D0751C7D
S1131240EDB20431C9B2A94257D06B1CDBB2AA017A
S1131250125CFF2A3CD01D00F5E705AAD21856708F
S113126069E005AFFF187D7063E0707802993C4B2C
S11312709847394C21008831A8B23A4B98474B46DD
S11312801B78E318DD720122C823E25401370236C9
S1131290022F13D087235A46D55CAD00ED19D047F1
S11312A0B146337801998B42DFD188232A4AD1543D
S11312B03C22009903982C4B9847DAE74446404671
S11312C02A4B98478723244AD454002094E73500B6
S11312D0214E8823F45430008C303C220099224B58
S11312E0984731008831A8B21E4B98473419E572EB
S11312F00122C823F25400207EE7B30898461B025B
S1131300154A5268D31805AA1978117003218E431F
S113131056703D31595C9170711CD1708022985C7B
S11313204032995C0023B51C033605AAD25C904276
S113133097D08A4291D00233042BF6D105AE002710
S1131340054B9B46054B9A465B4688330293043310
S1131350039301949EE7C0464C0A0020AD1100009F
S1131360190F00003D0F0000B1400000B10D000056
S11313700EB470B583B007AD40CD0D4C8022520041
S1131380002120000B4B984701952A0031002000D2
S1131390094B98472000094B984782B2210008481E
S11313A0084B984703B070BC08BC03B01847C0464C
S11313B0000E0020354100005D420000C9410000DC
S11313C0DC0C0020DD1B000010B590B08023DB0591
S11313D0009300230193FF2269460A8100228B7245
S11313E0CB72012124206C46215401302154253133
S11313F06354013163540A930531635401316354D6
S113140005932382E3762276227762761323A376EA
S11314106277E1235B0208930F4B0C930F4B0D9300
S113142001235B420E930F9380235B0303930C4CC5
S11314306A460C4920000C4B98472268D369002B5C
S1131440FCD1136802210B43136008490448084B7C
S1131450984710B010BDC0460200160002001700E5
S1131460DC0C002000140042B5180000FC870000CA
S1131470711300000C4B1B68002B06D1EFF3108393
S1131480002B07D00022094B1A70074A1368013356
S11314901360704772B6BFF35F8F0022044B1A705B
S11314A00132024B1A70F0E7180B00201C0B0020CD
S11314B000000020084B1A68013A1A601B68002BD0
S11314C009D1064B1B78002B05D00122044B1A705E
S11314D0BFF35F8F62B67047180B00201C0B00200F
S11314E000000020F0B583B001AC01256570002731
S11314F0A770257021003E20064EB0478022D205F9
S1131500054B9A612770657021000F20B04703B026
S1131510F0BDC0461D1500008044004100B583B0F5
S113152001AB80221A700A785A704A789A708A78C5
S1131530DA701900014B984703B000BDED2200009A
S1131540F0B5DE4657464E464546E0B587B0804680
S1131550049116001F000022002300218B463F2423
S113156001202100009601975C46039444460594AB
S113157013E02024641A0500E540A84614E0009C0A
S1131580019D121BAB415C464D462C43A346039C74
S113159045462C430394013925D3202464420C1975
S11315A0E7D40500A540A84604008C40A146921843
S11315B05B4114001D00059E4F463E40B446049E08
S11315C047463E40B246664657463E4303D0060071
S11315D0264332002B00009C019D9D42DBD8CED1D6
S11315E09442D8D8CBE7039B5846190007B03CBCBB
S11315F090469946A246AB46F0BD10B54908402333
S11316000024814202D2180010BD1C00091A631C78
S11316109BB28842F9D94023FF2CF4D814800023CC
S1131620F1E70000F0B583B00F00160008AA1178A6
S113163004004C434022BC4202D9100003B0F0BD68
S1131640002B14D1020008000021194CA04701000E
S11316503A0000230020174CA04700220123121A4D
S11316608B41120C1B041A4332800022E5E700224E
S1131670012BF9D10A00002300210D4CA0470200E0
S11316800B0000920193380000210A4CA04705008A
S113169080239B0140229842CFD8790FF800009A0A
S11316A0019BA047EA00821AD2B252032A43DBE725
S11316B04D2700004115000010B582B004000E4B08
S11316C01B78002B07D0002905D10B4B5B78834294
S11316D010D01D200CE001A90C701320074B984773
S11316E01320074B9847044B5C7001221A700020AA
S11316F002B010BD0020FBE7200B0020F521000004
S113170069210000404B984231D00AD93F4B98429E
S11317104DD03F4B98425AD03E4B984237D0002090
S113172070473D4B98420CD03C4B9842F7D101296D
S113173017D000295DD0022915D0032915D0002027
S1131740EEE7012907D0002951D0022905D0032949
S113175005D00020E4E73248E2E73248E0E73248C7
S1131760DEE73248DCE73248DAE73248D8E70129D5
S113177007D000293FD0022905D0032905D0002035
S1131780CEE72D48CCE72D48CAE72D48C8E7012904
S113179007D0002931D0022905D0032905D0002023
S11317A0BEE72848BCE72848BAE72848B8E7012933
S11317B007D0002923D0022905D0032905D0002011
S11317C0AEE72348ACE72348AAE72348A8E7012962
S11317D007D0002915D0022905D0032905D00020FF
S11317E09EE71E489CE71E489AE71E4898E71E4855
S11317F096E7032094E71D4892E71D4890E71D48AB
S11318008EE71D488CE7C0460010004200180042D5
S1131810001C00420014004200080042000C004278
S11318200300050003000600030007000300010095
S113183003001E0003001F000300090003000A0048
S113184003000B0003001100030012000300130047
S113185003000D0003000E0003000F000300170037
S1131860030018000300190003000400030008002B
S11318700300100003000C000300160030B587B00D
S11318800B4B6A4632CB32C232CB32C2009B83420C
S11318900BD001239A0069465258824206D0013384
S11318A0062BF7D1002007B030BD0023D8B2FAE7E9
S11318B020880000F0B5DE4657464E464546E0B562
S11318C091B005000C00160029600800AD4B984744
S11318D0020023680520DB0706D511B03CBC904606
S11318E09946A246AB46F0BD236817309B07F4D453
S11318F0A549086A971C0123BB4003430B620FA947
S11319002D27F35D0B701432D3B2029318009F4B52
S1131910984702989E4B9847F05D00219D4B98474D
S1131920F37A6B712423F35CAB712523F35CEB71C5
S1131930F37E2B72337F6B722B6898461800914BA1
S11319409847143000220E2306A98C4663441A805B
S1131950328A02928023DB019A4200D19FE00FD9A0
S1131960C023DB01029A9A4200D193E080231B0238
S11319709A4200D001E1032306930023079308E071
S113198080239B019A4200D0F7E0102306930F3B7B
S1131990079333689B46F368049373699A46337ECE
S11319A005932623F35C039373689946002B00D1B7
S11319B0A1E080235B05994500D185E0737E002B6F
S11319C002D0B37E424693732A68029FD369002BE8
S11319D0FCD10E3306AA944663441B884246938185
S11319E05B46049A1343524613434A4613431F4328
S11319F0059B1B021F43039B5B071F432723F35CC9
S1131A00002B01D104331F43737E9B02327F5202A9
S1131A101343727F120213432422B25C5204134311
S1131A202522B25C12041343B17AF27A11431943AA
S1131A303389FF2B00D182E08022520417431943DB
S1131A402C23F35C002B03D1534B9B789B0701D5CC
S1131A5080231F432A68D369002BFCD14346596075
S1131A602A68D369002BFCD143461F600EAB802249
S1131A701A7000225A70DA709A70336B0A93736B7F
S1131A800B93B36B0C93F36B02930D9300270AAD86
S1131A90424E63E008230693073B079379E73368D4
S1131AA09B46F368049373699A46337E0593262311
S1131AB0F35C039373689946002B18D080235B056D
S1131AC0994501D0002025E02723F35C002B00D0AA
S1131AD074E7336A1F00C0B2314B984701000E22ED
S1131AE006AB9C46624438002E4B984712E008230C
S1131AF00693002307932723F35C002B0ED0069B49
S1131B000093079B0E2206A98C466244B16A306A90
S1131B10254FB847002800D0DFE64FE7336A1F009F
S1131B20C0B21F4B98470100069B0093079B0E22EF
S1131B3006A88446624438001B4FB847EAE7F37EA0
S1131B40002B00D17CE78023DB041F4378E72000CF
S1131B50164B984707E00137042F0CD0F9B2BB00AD
S1131B6058590028F3D0431CF5D00EA90870000C76
S1131B70C0B2B047EFE70020AFE61023069300237E
S1131B80079306E77D18000000040040F5210000DB
S1131B9069210000B916000000200041ED22000078
S1131BA011220000FB150000251600000517000097
S1131BB0C3791C22002B01D1100070470368187EE2
S1131BC0173AC007F8D5DA69002AFCD11985022131
S1131BD01A7E0A42FCD00022EEE70000F0B5CE46A1
S1131BE0474680B583B0050001911720002A04D12F
S1131BF003B00CBC90469946F0BDEB790530002B40
S1131C00F6D02C68E369002BFCD1013A93B29946D3
S1131C10002601271F4B984611E0731C9BB2019AC2
S1131C20915D6A79012A17D089B21E0028001A4BE7
S1131C3098474B46013B9BB29946434513D0237EBC
S1131C403B42EAD1134B227E3A42E6D1012B19D012
S1131C50013B002BF7D1E0E70236B6B2019AD35C20
S1131C601B021943E2E7237E9B070DD4094B022193
S1131C70227E0A420AD1012B0AD0013B002BF7D164
S1131C800020B5E71220B3E70020B1E70020AFE75A
S1131C901220ADE7FFFF0000B11B000010B50828BB
S1131CA003D880001C4B1B589F46002032E01B4B7E
S1131CB018692FE01A4B1B6A9B059B0F1948D840E3
S1131CC028E0164B586925E0144B1B6800209B073D
S1131CD020D513491022CB681A42FCD00F4B1A6846
S1131CE024231340042B01D00F4813E000200F4B92
S1131CF098470A4B9B681B041B0C58430AE050236B
S1131D00074AD35C00205B0704D5044BD86801E084
S1131D108020000210BDC04638880000240B00203B
S1131D200008004000127A00006CDC02112200005E
S1131D3070B50C490B6A047885784078012210400C
S1131D4080014026B34303432A40D20180208343C9
S1131D5013430322224012020348034013430B623D
S1131D6070BDC04600080040FFFCFFFFF0B5DE4632
S1131D7057464E464546E0B50100264B9B469B8A96
S1131D80457800784242424191468878CA78944620
S1131D900A7990464E7B0F7B8C7B8A681E494A6188
S1131DA001214A4692009146042293434A46134332
S1131DB042460A40D20090460822934342461343C7
S1131DC062460A401201944610229343624613432A
S1131DD0084040012022934303430F40BF014020A9
S1131DE083433B430E40F601403083433343793809
S1131DF005402D02094803402B43214009030848AC
S1131E0003400B435A4693823CBC90469946A246F3
S1131E10AB46F0BD00080040240B0020FFF8FFFF94
S1131E20FFEFFFFF082803D88000254B1B589F466F
S1131E30172044E0234A136A02210B431362002053
S1131E403DE0204A936902210B439361002036E070
S1131E501C4A138A02210B43138200202FE0194AE3
S1131E60938A02210B439382002028E016490B68D1
S1131E70022213430B60134B9A8419000E32CB6871
S1131E801A42FCD0104A91680E4BD96252689A6289
S1131E9000229A8419001032CB681A42FCD00A4BF3
S1131EA01B689BB2074A9384002008E0054944223A
S1131EB08B5C022003438B54002000E00020704719
S1131EC05C88000000080040240B0020F0B589B0B5
S1131ED0C222D2002F4B9A602F4A53681E218B4393
S1131EE0536002236A46137000242C4DE0B2694605
S1131EF0A8470134252CF9D104A80023037083706A
S1131F00802212028260C370012202710373837300
S1131F10023242704373224B98470520214B984765
S1131F201C490222CB681A42FCD01A4A938A8021A7
S1131F300B43938203A80024447001258570047028
S1131F40194B98470620174B9847184B984701950B
S1131F506B465C701C725C7205236A46137069469A
S1131F600120134FB8470120124EB047124B1C7288
S1131F705C729C72DC7201956B465C7006236A4647
S1131F8013701472547269460020B8470020B04799
S1131F9009B0F0BD0008004000400041F5210000F8
S1131FA06D1D0000251E0000311D0000BD1F000036
S1131FB0E11F00009920000000040040064A9369D4
S1131FC008210B4393610122044B1A7019000B780A
S1131FD01342FCD17047C04600040040000C00408E
S1131FE070B5060004000D782D0205434B78002BD4
S1131FF002D08023DB021D434B7A002B02D08023C6
S11320001B031D434868012810D9431E184234D1CC
S1132010022830D90223002201325B009842FBD807
S113202012023243140080235B031D430B7A002BFE
S113203002D080239B031D43134A53785BB2002BC9
S1132040FBDB124B9847124B1E700F4A53785BB25E
S1132050002BFBDB0C4B9C601A0053785BB2002B0B
S1132060FBDB094A5368802149020B401D4355603C
S1132070084B984770BD0022D2E704023443802302
S11320809B021D43D2E7C046000C004075140000BB
S1132090080C0040B514000010B504000B4A537836
S11320A05BB2002BFBDB0A4B98470A4B1C70074AB8
S11320B053785BB2002BFBDB044A516880235B023C
S11320C00B435360044B984710BDC046000C0040BE
S11320D075140000040C0040B514000070B5040031
S11320E01A4A53785BB2002BFBDB194B9847194B08
S11320F01C70164A53785BB2002BFBDB134E7068DE
S1132100C004C00E144B98470500124B1C7076682F
S1132110F602F60F114B1C700C4A53785BB2002B7D
S1132120FBDB0A4B9C682402240C0D4B9847002EC1
S113213007D1012C07D9210028000A4B9847050034
S113214001E00134E540280070BDC046000C0040A9
S113215075140000040C00409D1C0000080C004095
S1132160B51400003526000010B50400064B98474E
S1132170064B1C70064A53888021C9010B435380C7
S1132180044B984710BDC04675140000020C004073
S1132190000C0040B514000010B504000F4B984724
S11321A00F4B1C700F4A53881B05180F53880E4998
S11321B00B40538053880D490B40538011008022FB
S11321C0D2014B881342FCD106494A8803020648CF
S11321D0024013434B80064B984710BD7514000012
S11321E0020C0040000C0040FFF0FFFFFFBFFFFFA8
S11321F0B514000010B50C7824020443024B984730
S1132200A4B2024B5C8010BD99210000000C004078
S113221010B50400064B9847064B1C70064B5C88AF
S11322202405240F054B98472000054B984710BD03
S113223075140000020C0040000C0040B5140000AE
S1132240DD20000030B5D378002B35D11378802BF6
S113225029D01B0680246402234354780225AC430E
S113226006D19478002C20D18024A4022343416019
S11322705478013C012C1CD90D042D0CA024E40538
S11322802C431C4384620D0CD02424062C431C4391
S11322908462D478002C22D15B031CD59378012B63
S11322A01ED0416117E00023D7E7C024E402234392
S11322B0DDE70D4C2340DFE741600C04240CA02330
S11322C0DB05234383620C0CD0231B062343836268
S11322D0D378002B03D15378013B012B02D930BDB5
S11322E08161F8E78160FAE7FFFFFBFF10B50A00A0
S11322F0C1090023002904D14309DB0105498C46A7
S113230063441F242040012181401800024B984758
S113231010BDC04600440041452200007047000043
S113232010B5054B9847054B9847054B9847054B07
S11323309847054B984710BDCD1E0000E5140000DA
S11323401D2300001D2300001D230000FEE70000E4
S1132350F8B52A4A2A4B9A4211D01A00294B9A42BC
S11323600DD2294A03339B1A9B0801339B00002298
S1132370234822498C58845004329A42FAD1234A81
S1132380234B9A420AD2D34321495B1803218B433E
S113239004339B18002102C29342FCD11D4AFF2141
S11323A01D4B8B439360FD3990235B001B4AD15036
S11323B01B4AD3780325AB4302242343D370D37839
S11323C00C27BB4308263343D370164B987B30222B
S11323D09043202210439873997BB94331439973F6
S11323E09A7BAA4322439A730F4A536880210B4372
S11323F053600E4B98470E4B9847FEE7548D0000F0
S113240000000020C009002004000020C0090020B2
S1132410680F002000ED00E00000000000700041A3
S11324200050004100480041004000416940000064
S1132430592400000300064A1268002A04D0044A02
S11324401068C318136070470249014A1160F6E727
S11324503C0B0020682F0020F8B5CE46474680B5D7
S11324605A4B98475A4B98475A4B98475A4B984758
S11324705A4B9847162862D0002865D1584C5023EF
S11324802370002563681D7063685D706268931C27
S11324907721917012225A7000229A70DA701A71A0
S11324A05A719A71DA7101326D3920004D4EB0477C
S11324B063681D7063685D70002202212000B047CC
S11324C051232370012208212000474B984761685B
S11324D00A784B781B0213438A7812041343CA7890
S11324E012061A430B794879000218438B791B04AE
S11324F01843CB791B0603433C4D3D4928003D4C12
S1132500A0473D4900203D4B98473D4A3D4928009E
S1132510A0473D4C10239846A0443C4F334E354DC4
S1132520227839003000A84701344445F8D13849AD
S11325302E48304B98470023994600260AE0354937
S11325402A482C4B984799E7334B9847234B984795
S113255094E72E004B46002B2AD02B4B4A46D25CE4
S11325602E492248234B984700231C003500F61AB5
S1132570214BF6182A4F0135325D39001B481D4B9B
S1132580984701340F2CF6DD21491848194B984718
S113259001239C46E1444B46042BDAD11649214BD6
S11325A01B780B700020204B9847204B9847FEE780
S11325B0154B1A780D4D194928000E4CA047104AA6
S11325C01B492800A0470423CFE7C046212300006D
S11325D0C9130000010D0000ED0A0000810F000086
S11325E0D00B0020ED0B0000910C0000DC0C00204F
S11325F09C88000071130000040F002045110000A6
S1132600AC880000A488000004000020D8870000E3
S1132610A08800008088000065100000A8880000E1
S1132620E8870000400B0020DD110000AD11000020
S1132630B0880000002243088B4274D303098B4204
S11326405FD3030A8B4244D3030B8B4228D3030C7E
S11326508B420DD3FF22090212BA030C8B4202D320
S11326601212090265D0030B8B4219D300E0090A48
S1132670C30B8B4201D3CB03C01A5241830B8B4251
S113268001D38B03C01A5241430B8B4201D34B033A
S1132690C01A5241030B8B4201D30B03C01A52419F
S11326A0C30A8B4201D3CB02C01A5241830A8B4224
S11326B001D38B02C01A5241430A8B4201D34B020D
S11326C0C01A5241030A8B4201D30B02C01A524171
S11326D0CDD2C3098B4201D3CB01C01A5241830925
S11326E08B4201D38B01C01A524143098B4201D35F
S11326F04B01C01A524103098B4201D30B01C01A8A
S11327005241C3088B4201D3CB00C01A5241830803
S11327108B4201D38B00C01A524143088B4201D330
S11327204B00C01A5241411A00D201465241104690
S11327307047FFE701B5002000F006F802BDC0466F
S11327400029F7D076E770477047C046F0B5CE460B
S1132750474615042D0C2E0080B50704140C3F0CBD
S11327609946030C7E435D43674363437F19340CEE
S1132770E4199C46A54203D980235B029846C444CD
S11327804B46514343433604360C250C240465441C
S1132790A4195918491920000CBC90469946F0BD5B
S11327A0F8B54546DE4657464E460C03E0B54E00A6
S11327B0C90F88460D00610A440F0C43C700190372
S11327C05800DB0F9B464B0A510F0B43760D400D0F
S11327D01900D200D84500D1AEE0351A002D00DC36
S11327E0F6E000280FD1134300D1DBE06B1E002B71
S11327F000D037E1BA1A9742BF41641A7F42E41B02
S11328000126170024E0C64B9E424DD080231B04B2
S11328101943382D00DD07E11F2D00DD38E12020AC
S1132820431B9A460B005046834099461300484682
S1132830EB401843030050468240501E8241E94059
S11328401A43BA1A611A9742A441170064420C1B36
S1132850230262D56402650A002D00D1DFE028005E
S113286001F0E4FB0300083B1F2B00DDD2E0202233
S11328703C00D21A9D40D4409F4025439E4200DD37
S1132880C4E09E1B731C1F2B00DDF1E020223800E6
S11328902900D21AD840914097402C000143781E59
S11328A08741DC4000260F437B0709D00F233B40C0
S11328B0042B05D03B1DBB42BF417F42E4191F00DE
S11328C023022CD5964B01369E4200D19AE0454610
S11328D0944BFF081C406007760564020743240BF1
S11328E0760D00212403230B0C0D8F4A24051C4371
S11328F01440330523435B00ED075B082B4338008A
S113290019003CBC90469946A246AB46F8BD6446C5
S1132910044300D111E2040067467B07C6D1454653
S11329206007FF080743E4087D4B9E4230D0240330
S11329307605240B760DD4E7331A9A46002B78DDFE
S1132940002831D076488642AED08020000401436E
S11329505346382B00DCE9E00A43511E8A4100212A
S1132960D219BA42BF4109197C4217000C1923023B
S1132970D3D56B4B01369E4200D13AE10120694B1D
S11329801C407B0807401F43E007074364088BE7AC
S113299023003B4300D1CBE18022120314432403E0
S11329A0240B9EE72E007FE70800104300D1B4E01B
S11329B0581E002800D0DEE0BA18BA429B416418C1
S11329C05B42E418170001262302A6D50226D5E7A8
S11329D0002D6ED1701C4005400D012800DCF9E08B
S11329E0B81A844687428041E51A40422D1A2802CB
S11329F000D489E0D71BBA4292411C1B5242A51A4B
S1132A00D84629E74546002400276AE7454CF61ACC
S1132A102C4049E73D002838854000272EE7380040
S1132A2001F004FB20301DE70A43511E8A410021B6
S1132A3007E7002B00D0F3E0701C43055B0D012B6E
S1132A4000DCADE0364B984200D1D1E0BA18BA426E
S1132A50BF4164187F42E419E7075208174364082A
S1132A60060021E72E48854200D193E01D00D0E600
S1132A7029001F3EF140202B00D18DE04022D31AC3
S1132A809D402F437D1EAF4100240F43002644E7A1
S1132A902B000800203BD8400300202D00D17DE00E
S1132AA04020451BA9400A43511E8A4100211A4374
S1132AB0C7E6002E50D01A4EB04257D080266B4243
S1132AC09946360434434B46382B00DDD6E01F2BA1
S1132AD000DD35E12026F51A2600AE40B2463E0060
S1132AE0DE40AC46350056462E436546AF407D1E5B
S1132AF0AF41DC403743D71BBA4292410C1B5242D0
S1132B00A41A0600D846A3E6644667462C4300D0C0
S1132B10A2E600250026002706E71E00C4E6C046FC
S1132B20FF070000FFFF7FFFFFFF0F801F2B63DC09
S1132B302020C31A080098409C4683465346100040
S1132B40D84003005846184363469A40531E9A419E
S1132B5053460243D94003E726003E4306D0EB43E5
S1132B609946002BC7D0944EB042ACD10C0017004C
S1132B700600D84698E6904B9A450BD08246E7E685
S1132B80002800D09EE01800104300D1E9E01C00AA
S1132B901700D846884E87E6002572E7002182E7B1
S1132BA023003B43002E00D0ABE0002B00D1E7E034
S1132BB00B00134300D177E6BA18BA42BF41641838
S1132BC07F42E419230200D4F2E07C4B17001C403E
S1132BD0060069E620003843002ED1D100285BD1DD
S1132BE01C00144300D1A8E01C001700D8465BE683
S1132BF006000024002797E650460B002038C34007
S1132C0099465346202B00D195E0402350461B1A89
S1132C1099400A43511E8A414B4600211A439FE6BC
S1132C20002E30D126003E4367D0DB439A46002B6A
S1132C301CD0614EB04260D05346382B00DD96E084
S1132C401F2B00DD9FE02026F31A26009E409C46A1
S1132C50B34653463E00DE4033005E461E436346A1
S1132C609F407B1E9F415346DC403743BF18974229
S1132C70924164185242A418060078E627437C1E49
S1132C80A741002437E74C4EB04236D080265B4241
S1132C9036049A463443CFE71800104300D103E6C4
S1132CA0B81A84466745AD41E01A6D42401B0502DF
S1132CB000D42CE6D71BBA4292411C1B5242A41AE0
S1132CC0D846F1E51800104300D163E7F808670718
S1132CD007438020E4080003044208D0DD080542CD
S1132CE005D1D208590711430F002C00D8467B0F99
S1132CF0E4001C43FF00304ED6E50C00170006002C
S1132D00D2E5002B38D00B00134300D142E7F8087A
S1132D10670707438020E40800030442E7D0CB0898
S1132D200342E4D1D208490711430F001C00DEE737
S1132D3000270024D5E500216BE700250027F3E5F3
S1132D404E462500203EF5404B462E00202B2DD02C
S1132D504025ED1AAC4027437C1EA741002437438D
S1132D60C9E6802400252403134E0027DCE527430D
S1132D707C1EA741002479E70C0017000E4E93E552
S1132D800C00170090E556462300203EF340994678
S1132D905346202B0ED0402356469B1B9C40274372
S1132DA07C1EA7414B4600241F435FE70024D2E763
S1132DB01700B2E50024F2E7FF070000FFFF7FFFE2
S1132DC0F0B557464546DE464E46E0B54C000E0388
S1132DD087B0834692461D008046360B640DCF0FA4
S1132DE0002C4FD06F4B9C4235D08023420F1B04E4
S1132DF0F600134333439946C30098466A4B0026B2
S1132E009C460023644403932B031B0B9B466B00DB
S1132E10ED0F50465B0D01955ED0624A934253D04C
S1132E205A46D1008022400F120402430A439346BB
S1132E305246D1005C4A94460022634438006840FC
S1132E4084460290E41A16430F2E00D9B4E0574B7F
S1132E50B6009B599F460300334399466CD1002327
S1132E609846023308260393CEE7CB464146039A9D
S1132E700197022A65D1019B4A4C9C4600230022FB
S1132E8098466BE00300334399464ED0002E00D1A0
S1132E90BCE1300001F0CAF803000B3B1C2B00DD41
S1132EA0ACE11D22D31A5A460100DA4008398E409B
S1132EB01300334399465B468B40984600233C4CB1
S1132EC00026241A03939FE751465A46114329D1F9
S1132ED0002293460232B1E7594601431ED05B46B5
S1132EE0002B00D19EE1584601F0A0F803000B3BF3
S1132EF01C2B00DD8FE102005946083A91408B46B5
S1132F001D21CB1A5146D9400B0059460B4351465B
S1132F109B469140264B00221B1A8FE70023012277
S1132F209B468BE75146032288E7002398460133EA
S1132F3004260024039367E70323B14603930C2676
S1132F4062E7032A00D15CE2019B012A00D0E4E19C
S1132F5013409C46002300240022984600211203BB
S1132F60130B0A0D12051A432305124C4046224046
S1132F70134362465B00D2075B081343190007B092
S1132F803CBC90469946A246AB46F0BD0023802245
S1132F909C4612039846034CE0E70023014C0022B0
S1132FA09846DBE7FF07000001FCFFFFB88800003C
S1132FB00DFCFFFFFFFF0F80D94500D939E100D197
S1132FC034E1002346464D469A46013C5B460A0ED0
S1132FD01B021A430B02170C039313041B0C390036
S1132FE0280090460193FFF725FB0200019B8346CE
S1132FF05A43280039009146FFF7A2FB350C090417
S11330000D43A9450DD95B464544013BA84500D96C
S11330103AE1A94500D837E102235B429C46454486
S1133020E3444B46EB1A390018000493FFF702FB04
S1133030019B05004343390004989946FFF780FB40
S1133040330409041B0C0B43994509D943446A1EF4
S1133050984500D91AE1994500D817E1023D434447
S11330604A469B1A5A4612042A4303999346100C63
S11330700A0C914609045A46090C4E460D001204E6
S1133080120C4543059151437243704352190E0C7F
S1133090B218954203D980256D02AC466044150CE4
S11330A009041204090C28185218834200D2CEE0F5
S11330B000D1C8E01D1A53469E1AB24592415242AD
S11330C0AB1A9A46984500D117E139001800FFF76A
S11330D0B1FA019B05004343390050460493FFF7BE
S11330E02FFB04980B04310C1943884209D941443D
S11330F06B1E884500D907E1884200D804E1023DEF
S11331004144049BCB1A180039000493FFF792FA48
S1133110019B82464343390004980193FFF710FB57
S113312001980B043104090C194388420DD9534604
S11331304144013B884500D9E8E0884200D8E5E0F5
S113314002235B429C464144E244019B2D04CE1A77
S113315051462943059D4F462A000B04080C1B0CBD
S11331605A4345437B4378435B19170CFB189D4234
S113317003D980256D02AC4660441D0C12041B0467
S1133180120C28189B18864200D293E000D18EE0DE
S113319001231943A04BE318002B00DC99E04A07F4
S11331A000D09EE05A46D20106D55A469B4B1A409F
S11331B080239346DB00E318994A934268DD012398
S11331C0029A984C1A400023944698460022C5E679
S11331D080224B46120313420AD05B46134206D1A7
S11331E01A431203120BAC4688468E4CB6E64B4685
S11331F01A431203120BBC468A4CAFE603005A462C
S1133200283B9A4000239146984657E6584600F0DA
S11332100DFF203040E603005246283B9A4000212F
S1133220934677E600F002FF20305FE6884500D23F
S1133230C7E64B46DE075D0843465B081E4343462C
S1133240DB079A46C2E60025924500D333E7039E86
S11332505946B446E244B245AD416D424544EB188B
S11332600139984507D2984200D97FE000D1BCE0EB
S11332701D1A8B461FE79845FAD1039D5545F2D98F
S113328043468B461D1A16E79B46CAE61500E7E639
S11332905A46C90852070A435B0590465C0D5A46D4
S11332A00123029952021940120B8C4656E6002B58
S11332B000D16FE746444A1EB04529D91100864221
S11332C000D065E7039A934200D061E762E70121E9
S11332D049420120C21A382A21DD029B03409C4640
S11332E038E60F220A40042A00D15BE70A00111DC8
S11332F0914292415242934454E7474BE318002BC6
S1133300E5DD01225242F2E71D00FAE69A461CE787
S1133310B04239D86ED011003AE702933AE71F2A37
S11333203CDC20239B1A0C005846994098404B1EC5
S113333099415B46D440D340204308431A004307D5
S113334009D00F230340042B05D00100081D884237
S11333509B415B42D21813023AD50123029A0124FD
S11333601A400023944698460022F7E50221494278
S11333708C46039DE344AC46E244AA45AD416D420C
S11333804544ED182D1A96E68A1E03994D008D4288
S1133390894149424144761803958FE71F204042F2
S11333A0C31A5846D8400300202A28D040205D463E
S11333B0821A954029434A1E91411943072300224A
S11333C00B4009D00F2300220B400800042BBDD171
S11333D0010053075202120BC908194301238846FE
S11333E00299002419408C46B8E55245BED88B4654
S11333F0002560E6039D9D42C6D3110062E70025C7
S1133400D8E780225B4612031A43019B1203120B76
S11334109C468846034CA1E5FF030000FFFFFFFE26
S1133420FE070000FF070000F0B557464546DE469C
S11334304E46E0B50C0398464E00230B87B00700B8
S113344092469B46760DCD0F002E6BD06D4B9E425F
S113345035D080245B46420F2404DB0014431C4314
S1133460C3009946684BA3469C4600230027664444
S1133470029343461C035A00DB0F5046240B520DA3
S1133480984600D176E05F4B9A426DD08023410F7D
S11334901B040B435C49E4008C461C43C30000201E
S11334A062444146B6186940721C01919446074330
S11334B00F2F00D9B0E0554ABF00D25997465B465A
S11334C00343994600D087E000239B460233082734
S11334D00293CEE742460192022867D0032800D126
S11334E00EE2012800D062E1002300240022994664
S11334F001990140CDB2002112030B0D120B1B05E3
S11335001343434A240513401C436400ED07640835
S11335102C434846210007B03CBC90469946A2463D
S1133520AB46F0BD034399464FD05B46002B00D118
S113353089E1584600F07AFD03000B3B1C2B00DDAB
S11335407AE11D22D31A3A0001005C46DA400839B8
S11335508C4013008F4023439B46B94600232D4ED5
S11335600027361A029384E7534623432AD10024C2
S1133570022096E75346234320D0002C00D157E184
S1133580200000F053FD03000B3B1C2B00DD49E140
S11335901D21CB1A51460200D9405346083A9440A3
S11335A093400C431B4A121A00207AE70125019B21
S11335B0144C1D400023002299469CE7002400225D
S11335C001206EE7534603206BE700239B4601333B
S11335D00427002602934CE7032381460C27029319
S11335E047E780220023002512039946054C82E711
S11335F05C464B4602986FE75C464B460195029841
S11336006AE7C046FF07000001FCFFFFF8880000DE
S1133610FFFF0F800DFCFFFF4A464946170C1A0CAA
S11336201B041B0C08041900000C414315008846B8
S113363019007D43794303958946290015004543C4
S11336404D44029545462D0CAA46029D5544A94574
S113365006D98A46802149028946CA4451460391C3
S1133660290C0491414609042D04090C88462900BB
S1133670250C24044144240C05912100414388462F
S1133680210079438A466843414650448146080CE8
S113369048446F43824503D98021490289464F44F7
S11336A0010C894639004944029141460F040499AA
S11336B03F0C88460004C019804441460491594691
S11336C00F0C0904090C884659438A4639005143B2
S11336D0894641464A435146090C8B467B43D218DE
S11336E05A44934203D980235B029B46D9445146F2
S11336F00904090C8A46414661437C43130C1204B5
S11337004B445244A1468A463C0041466C434D43D7
S113371051464D440F0C7D19A94503D98021490216
S113372088464444049F0399B84641448B468345E4
S1133730804141428846514608042F04000C3F183A
S11337405846029910188946904292414F44BA460D
S1133750524299469346C244D144CB448F42BF411E
S1133760C245894199459B41934592417F424942D3
S11337702D0C52420F435B4213437F19FF185B46E3
S11337803C19DB0D059A64021C43430213435D1E7E
S1133790AB415A46C00D034352021343E20156D5CE
S11337A001205A0803401343E207134364085A48AC
S11337B0604400284DDD5A0709D00F221A40042A1C
S11337C005D01A1D9A429B415B42E4181300E201A2
S11337D004D58020514AC00014406044504A9042AD
S11337E000DDE3E60125DB0862071A436402019B5E
S11337F09146220B4405640D1D407CE68022594607
S11338001203114208D0144206D122431203120BB0
S113381045469946434C6EE65B461A431203120B27
S1133820404C68E603005446283B9C400023B9E61C
S113383000F0FCFB2030A6E60300283B9F40002359
S1133840BB4699468AE600F0F1FB203074E6B446A4
S1133850ADE701252A1A382A06DD019B00241D4004
S113386000230022994646E61F2A21DC2025200059
S1133870AD1A1E00AB40A840D6405D1EAB4130439C
S11338801843D440430709D00F230340042B05D029
S11338900300181D98429B415B42E418230221D582
S11338A00125019B01241D4000230022994622E6A4
S11338B01F2521006D42281AC1400800202A1DD06E
S11338C05F35AA1A944023435C1EA3410725034392
S11338D01D400022002D09D00F2200241A40180098
S11338E0042AD6D1030065076402220BDB082B43AC
S11338F001259946019B00241D40FCE50024E2E7D4
S1133900802201251203224301991203120B0D4058
S11339109946044CEFE5C046FF030000FFFFFFFE9D
S1133920FE070000FF070000F0B54646D6464F46A6
S11339300C03C0B5CD0F4E00610A440F0C43C10007
S11339405800400D84468A460F001903500F490A57
S11339500143C648760DA846DB0FD200844500D14A
S1133960D8E001204340AB4200D1A6E06046351ABE
S1133970002D00DC05E1002810D10B00134300D119
S1133980D7E06B1E002B00D04BE153469F1ABA457B
S11339908041641A4042241A01261EE0B34B9E4221
S11339A048D080231B041943382D00DD19E11F2D55
S11339B000DD4CE120230F005B1B10009A409F4068
S11339C0E840531E9A41E940074317435346DF1B1F
S11339D0611ABA45A44164420C1B230200D4C5E019
S11339E06402650A002D00D1F6E0280000F01EFBF9
S11339F00300083B1F2B00DDE9E020223C00D21A23
S1133A009D40D4409F4025439E4200DDDBE09E1B49
S1133A10731C1F2B00DD0AE120223800D21A290072
S1133A2097402C009140D8407A1E9741DC400026F4
S1133A3001430F437B0709D00F233B40042B05D0E0
S1133A403B1DBB42BF417F42E4191F00230225D521
S1133A50864B01369E4200D1AFE0854B01251C40C8
S1133A6043466207FF08640276051743240B760D6C
S1133A701D4000212403230B0C0D7E4A24051C4306
S1133A801440330523435B00ED075B082B433800E8
S1133A9019001CBC90469946A246F0BD0125434638
S1133AA06207FF081743E4081D40704B9E4236D05E
S1133AB024037605240B760DDBE76346F31A002B0B
S1133AC000DC94E06046002835D068488642B1D0D6
S1133AD080273F043943382B00DCFDE00A431700FC
S1133AE000217A1E974157445745804109194442A1
S1133AF00C1923023AD55D4B01369E4200D14BE1AD
S1133B0001225B4B1C407B0817401F43E20717430D
S1133B1064088FE70800104300D024E721E723005E
S1133B203B4300D1B9E18022120314432403240B44
S1133B309FE72E007EE70800104300D1CAE0581E1C
S1133B408446002800D0E7E052445245804164187E
S1133B504042241817000126230207D50226CFE786
S1133B6064462C4300D1B3E12C0067467B0700D0A8
S1133B7062E76307FF081F4301254346E4081D402D
S1133B8093E7002D78D1751C6D056D0D012D00DCBA
S1133B90F2E05046801A8245BF41651A7F42ED1B10
S1133BA08446280200D48CE05046171ABA42924147
S1133BB00C1B5542651B984614E701254346002417
S1133BC01D40002755E72A4CF61A2C4032E73D00E9
S1133BD028388540002717E7380000F027FA2030FE
S1133BE006E70A43170000217A1E9741EEE6002BF0
S1133BF000D0E5E0731C9C465B055B0D012B00DCEB
S1133C009FE01A4B9C4500D1C5E052445245804187
S1133C10641840422418E7075208174364086646AC
S1133C2008E71248854200D185E01D00BCE6290062
S1133C301F3EF140202B00D17FE04022D31A9D404B
S1133C402F437D1EAF4100240F4300268EE72B0037
S1133C500F00203BDF40202D71D040235D1BA94085
S1133C600A43511E8A4100211743AFE6FF070000B3
S1133C70FFFF7FFFFFFF0F80002E3ED0B34EB44501
S1133C8045D0802636046D423443382D00DDA8E04B
S1133C901F2D00DD1FE1202627005046761BB7406C
S1133CA0E84007435046B040461EB041EC4038431C
S1133CB0171ABA4292410C1B5242A41A66469846FD
S1133CC08BE6644667462C4300D08BE6002500262D
S1133CD00027EAE61E00ADE61F2B60DC2027F81A59
S1133CE00F00844687401000D84007436046824056
S1133CF0501E8241D9401743F5E62600504606433C
S1133D0005D0ED43002DD3D0904EB445BDD10C0069
S1133D101700664698468DE68C4883420BD063466E
S1133D20D9E6002D00D096E00800104300D1E2E06F
S1133D300C0017009846854E7CE6002580E700219C
S1133D408EE7230050460343002E00D0A8E0002B4A
S1133D5000D1DEE00B00134300D16BE65244524520
S1133D6080416418404224181700230200D4FDE661
S1133D70774B66461C405DE6250050460543002E01
S1133D80CFD1002D4FD10C00144300D1A0E00C0082
S1133D90170098464EE666460024002785E61F0075
S1133DA00800203FF8400700202B00D18EE040207F
S1133DB0C31A99400A43511E8A410021174392E6CF
S1133DC0002E14D126005046064362D0DB43002B5C
S1133DD05CD187189742924164185242A4186646EF
S1133DE087E650462043441EA041002460E7574E16
S1133DF0B4454ED0802636045B423443382B00DD74
S1133E007FE01F2B00DD8BE0202627005046F61AAA
S1133E10B740D84007435046B040461EB041074320
S1133E20DC40BF18D6E70D00154300D102E650462A
S1133E30801A8245BF41651A7F42ED1B84462802E1
S1133E4000D48DE65046171ABA4292410C1B5242D6
S1133E50A41A9846EEE50D00154300D16BE75046D1
S1133E606707C00807438020E4080003044207D022
S1133E70CD08054204D12C009846D70849070F43C2
S1133E807B0FE4001C43FF00304ED3E52F4EB445B6
S1133E90B4D10C0017006646CCE500270024E8E501
S1133EA0002B39D00B00134300D144E7C008670747
S1133EB007438020E40800030442E1D0CB08034216
S1133EC0DED1D70849070F431C00D9E7002171E769
S1133ED000250027E9E52E002700203EF740202D8D
S1133EE02FD04026751BAC4050462043441EA041B1
S1133EF000243843DCE6802400252403134E0027E5
S1133F00D3E5504620430700781E87410024BF189C
S1133F1060E70C0017008DE50C0017000B4E89E5D7
S1133F201E002700203EF740202B0CD04026F31A19
S1133F309C4050462043441EA04107430024BF1820
S1133F4048E70024D0E70024F3E7C046FF07000059
S1133F50FFFF7FFF30B5134D0A034B00120B5B0DBF
S1133F60C90F0024AB4210DD0F4CA3420FDC8024A8
S1133F700E4D64032243ED1A1F2D0BDD0C48C31AAA
S1133F80DA405442002900D11400200030BD094B0E
S1133F90CC18FAE7084CE840A44663449A4002432C
S1133FA0EFE7C046FE0300001D04000033040000D8
S1133FB013040000FFFFFF7FEDFBFFFF10B5041E9D
S1133FC028D000F033F8154B154A1B1AD21A1F2AB1
S1133FD015DD144AD21A9440002224035B05240BF5
S1133FE05B0D0021100024030A0D240B120522434B
S1133FF00D4C1B05224013435B00590810BD2100E2
S113400091400A000B21081AC4405B052403240BC9
S11340105B0DE6E7002300240022E2E71E04000013
S11340203304000013040000FFFF0F801C21012350
S11340301B04984201D3000C10391B0A984201D387
S1134040000A08391B09984201D30009043902A265
S1134050105C40187047C0460403020201010101CC
S1134060000000000000000070B50D4E0D4D00244E
S1134070AD1BAD1005D0A300F35801349847A542F9
S1134080F9D104F051FE084E084D0024AD1BAD10CB
S113409005D0A300F35801349847A542F9D170BD67
S11340A0348D0000348D0000348D00003C8D000000
S11340B0F0B505000F2A2FD90B0003439B0734D119
S11340C016000C000300103E350901352D01451979
S11340D027681F6067685F60A7689F60E76810349F
S11340E0DF6010339D42F3D10F239E4310368519B0
S11340F089191340032B1AD91E1F0023B408013455
S1134100A400CF58EF500433A342FAD10324A643AA
S1134110331D2240C918ED18002A05D00023CC5CB9
S1134120EC5401339342FAD1F0BD0500F6E71A00CE
S1134130F2E7C046F0B5830743D0541E002A3FD0AF
S1134140CEB20200032502E01A00013C38D3531C0E
S113415016702B42F8D1032C2AD9FF220A401502EB
S113416015432A0415430F2C14D927001A00103FB5
S11341703E09013636019E19156055609560D5607B
S113418010329642F8D10F2297431037DB191440AE
S1134190032C0DD91A00271FBE080136B6009E193C
S11341A020C2B242FCD1032297430437DB191440E6
S11341B0002C05D0C9B21C19197001339C42FBD1E3
S11341C0F0BD14000300C6E710B5830725D00378BB
S11341D0002B24D00300032102E01A78002A1AD00D
S11341E001330B42F9D119680E4A0F4C8A188A43DD
S11341F0224206D1043319680A4A8A188A432242A1
S1134200F8D01A001B78002B03D001321178002952
S1134210FBD1101A10BD181AFCE70300E3E70020D5
S1134220F8E7C046FFFEFEFE8080808030B59BB07C
S11342300091049108496D4602910591012182245F
S11342404942E981A4006946AC8100F045F80023A5
S1134250009A13701BB030BDFFFFFF7F10B5040040
S11342601300034A10680A002100FFF7DFFF10BDA6
S113427014000020034B10B5002B02D0024800F0BC
S113428005F810BD000000009D42000010B50100BB
S113429000230022002001F023FB10BD70B5094B60
S11342A0094CE41AA41009D0084AA518AD00ED1869
S11342B02B68013C9847043D002CF9D104F03EFDE5
S11342C070BDC046488D00004C8D0000FFFFFF3FCD
S11342D07047C0467047C046F0B5DE46454657466F
S11342E04E46E0B5C3B00D00069114000F9309903B
S11342F002F0DEFB036818001993FFF765FF1890BE
S1134300AB891B0605D52B690793002B01D101F05E
S113431063F832AB25930023A34625AFBB607B60D3
S113432014931693159332AE17931A930A935B461C
S11343301B785C46002B1CD0252B02D119E0252BC1
S113434003D001342378002BF9D15B46E51A10D051
S11343505B463360BB6875605B19BB607B68013387
S11343607B60072B2EDC08360A9B9C46AC446346D4
S11343700A932378002B2ED0631C9B46002316AA95
S1134380D377012252429246002200210B9220321E
S1134390914620326378884600200024944659468A
S11343A001311A00203A582A00D9FDE2D74D920073
S11343B0AA5897460B9B0F925B420B9304231C4312
S11343C00B78EDE73A000699099803F0DDF9002827
S11343D009D132AEC8E7BB68002B04D03A00069975
S11343E0099803F0D1F9069B9B895B0601D501F07E
S11343F0CEF80A9843B03CBC90469946A246AB46D8
S1134400F0BD01220B7890462B20C9E74B1C9B463C
S11344100B782A2B01D101F01BFA1A000021303A43
S11344208A465946092ABCD80300110050465A4608
S11344309A46A34683001B1814785B005818210081
S1134440531C30391A000929F4D9524619008246FE
S1134450230010005C46A4E780231C430B789FE7ED
S11344608B4641461293002901D001F01FFA102314
S11344701C430F9AA30601D500F088FEE30601D57C
S113448000F080FD630601D400F07CFD0021535E42
S11344900C930432DB170D930F9201D500F086FEC6
S11344A00C990D9A080016ABDB7F10439846020066
S11344B001235146013100D1FFE0802120008843CF
S11344C00890002A00D0FCE05246002A01D000F0F7
S11344D02CFC002B01D000F004FD012032AB204065
S11344E00E90119308D02723302128AAD15416AA5C
S11344F0944648336344119353460E9A0793924566
S113450000DA0792002313934346002B02D0079B43
S1134510013307930223089A1A40914602D0079B5D
S1134520023307938423089A1A40109200D04DE274
S11345300B9B079A9C1A002C00DC47E27449BA686A
S11345407B688846102C1FDD31001025464603E0A9
S1134550103C0831102C15DD103201330E604D6013
S1134560BA607B60072BF3DD3A000699099803F0E3
S11345700BF9002800D036E7103CBA687B6832A9F2
S1134580102CE9DCB0460E00414674600133A418D7
S11345903160BC607B60072B01DD00F0A8FC16AB2A
S11345A0DB7F0836984612E28B4641461293002977
S11345B001D001F077F907220F9B073393430132AF
S11345C094469C4462460F921A6816925B680122D4
S11345D01593159B169D5B005B08984652424D4B04
S11345E02800414603F0F4FF002801D000F0FDFD4F
S11345F00122484B52422800414603F0EBFD0028BB
S113460001D000F0F2FD002200231698159903F062
S1134610D7FD002801D001F022F816ABDB7F9846C5
S1134620129B472B01DD00F0C7FE3B4B1193802307
S11346309C437D3B07930E93002308949A4613935F
S113464062E70022303B15001A00030007940800BB
S11346502C009B46A3001C190378640014191A004B
S11346600131303A0800092AF4D90B945846079CC2
S113467097E608231C430B7892E6129310231C43FD
S11346808B46A30600D57BE1E30601D500F07EFC52
S1134690630601D400F07AFC0F9B1A880C92002266
S11346A004330F9300230D920C9A002116A8C177AE
S11346B088465146013100D0FFE6002A00D135E397
S11346C00894012B00D1E5E3022B00D062E3179C90
S11346D00F20A146B44632AB19000C9A0D9B04007E
S11346E04D4614402C5D1E07150901392E430C70EC
S11346F01C092300340032001C43F0D10C920D93AA
S113470032AB5B1A119166460E93F5E63C890000C4
S1134710E48A0000FFFFEF7FA08A000012931023B9
S11347201C438B46A30600D511E1E30601D500F036
S113473031FC630601D400F02DFC0F9B1A880C9207
S1134740002204330D920F930C9A0123ADE78B469C
S113475041461293002901D001F090F8B84B179309
S1134760A30600D5ABE0E30601D500F007FC630621
S113477001D400F003FC0F9B1A880C92002204332E
S11347800D920F93E30700D4A9E00C990D9A0B0046
S113479013431A000223002A00D186E730201EA901
S11347A0087048256846401900781C4348707CE727
S11347B08B464146002901D001F083F8A30601D5B8
S11347C000F0E9FDE30601D500F09BFD630601D48A
S11347D000F097FD69460F9B098D1A680433079210
S11347E011800F93A3E54B461C430B78D8E5129335
S11347F00F9B8B461D1D1B6816A91A0011930023DD
S1134800CB77002A01D100F0FBFE5346013301D1DE
S113481000F038FE52460021119802F00BFC0028EB
S113482001D100F054FF119BC31A1A000E93DB430D
S1134830DB171A4016ABDB7F0792984600230F95CF
S113484008949A4613935FE60F9A1293136828AD5F
S113485007936B461B7F8B462B70002316A9CB77DF
S1134860130004330F9300230894984601330793ED
S11348700E93002311959A4613934BE68B464146BB
S11348801293002900D1F4E516ABD877F1E563461D
S11348901C430B7884E50B786C2B01D100F086FD6A
S11348A0102214437CE58B4641461293002901D023
S11348B000F0E8FF634B1793A30600D453E70722E5
S11348C00F9B07339343013294469C4462460F92F4
S11348D01A685B680C920D93E30700D555E70C99B1
S11348E00D9A0800104302230200DEE68B460F995E
S11348F030220B680C9300230D9302331C431EAB30
S11349001A7048325A700B0004330F934D4B1292B5
S113491017930C9A0223C8E601231C430B783FE546
S11349200F9B1A1D1B680B93002B00DA42E50B78D2
S11349300F9235E50B78002800D031E501222030B4
S113494090462DE58B461293A30600D4EDE607228C
S11349500F9B07339343013294469C4462460F9263
S11349601A685B6811001A00080010430C910D923C
S11349700123020099E68B461293A30600D483E632
S113498007220F9B07339343013294469C446246AB
S11349900F921A685B6811001A00080010430C910A
S11349A00D920023020080E68B46414612930029B3
S11349B001D000F07FFF129B002B00D10BE528AD46
S11349C02B70002316AAD37708944EE7BC6843469D
S11349D0002B0FD016AA1F2394466344336001238F
S11349E073607B6801340133BC607B60072B00DD9E
S11349F0B3E108364B46002B0CD01EAB33600223C8
S1134A0073607B6802340133BC607B60072B00DD7C
S1134A10AFE10836109B802B00D120E153460E9A5B
S1134A209D1A002D3CDD084A7B689146102D2CDD33
S1134A30102221009246099C32002E004D4609E0C6
S1134A40B08A0000C48A0000F48A0000103E0832D4
S1134A50102E16DD50461031013315605060B960D8
S1134A607B60072BF2DD3A000699200002F08CFEF1
S1134A70002800D0B7E4103EB9687B6832AA102E33
S1134A80E8DCA9460C00350016004A4664190133D7
S1134A9032607560BC607B60072B00DD51E1083635
S1134AA0089BDB0500D5B6E0119B33600E9B9C464A
S1134AB073607B6864440133BC607B60072B00DD5A
S1134AC09DE00836089B5B0741D50B9B079A9D1A0E
S1134AD0002D3CDDC44A7B689046102D26DD102253
S1134AE021009146099C32002E00069D03E0103EF1
S1134AF00832102E17DDBC481031106048460133CF
S1134B005060B9607B60072BF1DD3A00290020007A
S1134B1002F03AFE002800D065E4103EB9687B68D4
S1134B2032AA102EE7DC35000C0016004246641948
S1134B30013324C6BC607B60072B08DD3A0006996C
S1134B40099802F021FE002800D04CE4BC680B9BBD
S1134B5007998B4200DA0B000A9A94469C446346F8
S1134B600A93002C00D0D6E0002332AE7B60FFF71E
S1134B70DEFB149B012B00DCAEE0119B013433609F
S1134B80012373607B68BC6001337B60072B00DD0D
S1134B90DFE20836199A01333260189A984694462F
S1134BA064447260BC607B60072B00DDDEE2083683
S1134BB0002200231698159903F0FCFA002800D06F
S1134BC0A4E1119D149B0135013B35607360E41829
S1134BD001239C46E0444346BC607B60072B00DD18
S1134BE08BE0083621AB33601A9B9C4673604346C6
S1134BF064440133BC607B60072B00DC61E73A004E
S1134C000699099802F0C0FD002801D0FFF7EBFBDC
S1134C10BC6832AE56E7129B652BAADD0022002346
S1134C201698159903F0C6FA002800D1E2E06F4BFC
S1134C3001343360012373607B68BC6001337B60A3
S1134C40072B00DD66E308361F9B149A934200DAB3
S1134C50A4E1089BDB0700D5A0E1BC6832E70B9B0D
S1134C60079A9D1A002D00DCD8E6614A7B689146BC
S1134C70102D25DD102221009046099C32004E465D
S1134C8003E0103D0832102D17DD4046103101338A
S1134C9016605060B9607B60072BF2DD3A0006991C
S1134CA0200002F071FD002801D0FFF79CFB103DAD
S1134CB0B9687B6832AA102DE7DCB1460C001600F7
S1134CC04A466419013332607560BC607B60072B0F
S1134CD000DD7EE20836A1E60123089A134200D0E3
S1134CE04BE773607B68119A013301343260BC6016
S1134CF098467B60072B00DC73E73A000699099815
S1134D0002F042FD002801D0FFF76DFB7B68BC6810
S1134D10984632AE66E73A000699099802F034FDE7
S1134D20002800D120E7FFF75EFB089C012B00D18F
S1134D3084E1022B29D10894002300240C930D94C0
S1134D40C5E43A000699099802F01EFD002801D036
S1134D50FFF749FBBC6832AEA2E63A00069909980F
S1134D6002F012FD002801D0FFF73DFBBC6832AE13
S1134D7040E63A000699099802F006FD002801D0A1
S1134D80FFF731FBBC6832AE44E6089400230024EC
S1134D900C930D940C980D995B4632AA0793914697
S1134DA0B34600E0A1464A0794464B4665465C1E5E
S1134DB0C6080723CA08354311002A0003403033CC
S1134DC0237028000A43EDD10C900D9107995E469B
S1134DD08B4608994A461194C90700D53DE132AB88
S1134DE01B1B0E93FFF788FBE48A0000E08A000097
S1134DF0F48A00001F98002800DC96E2139A1499A4
S1134E00130090468B4200DD88464346002B0CDDA0
S1134E10119B44443360434673607B68BC60013338
S1134E207B60072B00DDB7E308364346DB4342468D
S1134E30DB171340139AD31A9846002B00DC28E1A1
S1134E40102B01DC00F0E7FCCF4A21009146102230
S1134E507B689246099D32004C46464604E008327F
S1134E60103E102E00DC04E1504610310133146072
S1134E705060B9607B60072BF1DD3A000699280089
S1134E8002F082FC002801D0FFF7ADFAB9687B6814
S1134E9032AAE5E70D9B002B00D1CAE00C9C0D9DC6
S1134EA032ABB1461E00200029000A22002303F081
S1134EB0AFF9013E303232700023200029000A226B
S1134EC003F0A6F9030004000D000B43EBD13200FC
S1134ED032AB9B1A11960C940D954E460E93FFF728
S1134EE00BFB00230E9332AB1193FFF705FB3A0043
S1134EF00699099802F048FC002801D0FFF773FADC
S1134F0016ABDB7FBC68984632AE60E5149B5D1E31
S1134F10002D00DC66E69C4B9946102D29DD1023FC
S1134F2032009A462E0021004346099C4D4603E078
S1134F30103E0832102E17DD504610310133156033
S1134F405060B9607B60072BF2DD3A0006992000BF
S1134F5002F01AFC002801D0FFF745FA103EB968A8
S1134F607B6832AA102EE7DCA9460C00350098466F
S1134F7016004B4675603360641929E60F9B1A6866
S1134F80FFF7FBFB13680793FFF782FA0F9B1A687E
S1134F90FFF784FB0F9B1A68FFF7D1FB199BBA68D4
S1134FA03360189B9C4673607B6862440133140031
S1134FB0BA607B60072B00DD02E20836149B5D1E9D
S1134FC0002D00DC7EE5704A7B689146102D25DDBE
S1134FD0102221009046099C32002E004D4603E029
S1134FE00832103E102E15DD404610310133156095
S1134FF05060B9607B60072BF2DD3A00069920000F
S113500002F0C2FB002801D0FFF7EDF9B9687B6814
S113501032AAE6E7A9460C00350016004A46641990
S1135020013332607560BC607B60072B00DC48E5AF
S1135030E5E50C9B092B00D930E7089C27220C9B43
S113504028A930338B54012316AA94460E936E3349
S1135050634408941193FFF74FFA302B00D10BE20D
S11350603023023A137032AB9B1A0E931192FFF75E
S113507043FAB046A14616000C004A463260424646
S1135080444401337260BC607B60072B00DD9CE20A
S113509008361F9B149A93424CDB089AD20749D4D2
S11350A0149A1399D31A521A90469A4200DD9846DC
S11350B04246002A0FDD1399119A8C4662443260ED
S11350C0424672607A6844440132BC607A60072ABE
S11350D000DD86E208364246D543ED1715405D1BD8
S11350E0002D00DCEEE4284A7B689146102D95DD06
S11350F0102221009046099C32002E004D4603E008
S11351000832103E102E85DD404610310133156003
S11351105060B9607B60072BF2DD3A0006992000ED
S113512002F032FB002801D0FFF75DF9B9687B6813
S113513032AAE6E7199A3260189A944672607A683D
S113514064440132BC607A60072A00DD30E208362C
S1135150A6E73A000699099802F016FB002801D048
S1135160FFF741F9BC687B6832AE13E53A00069953
S1135170099802F009FB002801D0FFF734F97B6895
S1135180BC68984632AE13E5F48A00000723073260
S11351909A4301339C46944463460F9353681268C0
S11351A00D930C92002B01DBFFF77AF90C980D9903
S11351B0002342428B4111001A002D2316A8C37705
S11351C0080010430C910D92984602002C3BFFF707
S11351D070F93A000699099802F0D6FA002801D02D
S11351E0FFF701F9BC6832AE18E41699159D0A0060
S11351F008002B00290003F0EBF9002800D0E6E2B8
S11352005346013300D10DE22023129A9A430E92A1
S1135210472A00D11CE180235B0023430893159B9C
S1135220002B00DA21E2169A07930023914610938B
S1135230129B662B00D1FCE1462B00D1DBE00E9AD9
S11352400998453A13005942594120AB0D00039384
S11352501FAB0293022323AA55441B92049200938A
S11352600195079B4A4600F05FFC129B1190672B47
S113527000D039E2119B9846A844E30700D48BE29E
S1135280002300224846079902F094FF4346002871
S11352900AD1239B434507D2302140465A1C23920E
S11352A01970239B9842F9D8119A9B1A14930E9B58
S11352B0472B00D1F6E0129B652B00DC26E2129B03
S11352C0662B00D1F4E11F9B1393149B139A1900CE
S11352D0914200DDD4E1E30700D549E2D343DB1773
S11352E011001A40672307920E911293109B002B12
S11352F000D0CFE016ABDB7F984600239A46FFF739
S113530003F90F9A0A9913681960130004330F9371
S1135310FFF70DF83A000699099802F035FA0028CB
S113532001D0FFF760F832AE8EE4DE4B0134336017
S1135330012373607B68BC6001337B60072B7ADCDC
S11353400836002807D1149B002B04D1089BDB07E7
S113535001D4FFF7B7FB199B3360189B19197360CD
S11353607B68B96001337B60072B00DDF2E132001A
S11353700832002800DACCE1119801331060149847
S11353807B6044185060BC60072B00DD37E40832B2
S11353901600FFF797FB0F990A9A0B681A60D21749
S11353A05A600B0004330F93FEF7C1FF4B460131E3
S11353B01C430B78FEF7F4FFBB4B1193FFF737F94F
S11353C03A000699099802F0DFF9002801D0FFF7A6
S11353D00AF8BC6832AEF1E54021099801F076FB89
S11353E0069B18601861002800D14FE24023069AFA
S11353F05361FEF78EFF23AB1B93049320AB0393FF
S11354001FAB02935346019303234A460093099822
S1135410079B00F089FB55461190119B9846129BFF
S1135420A844462B00D02BE7119B1B78302B16D0B9
S11354301F9B984424E73A000699099802F0A4F9BE
S1135440002801D0FEF7CFFF1F98BC6832AE78E782
S11354505346002B00D0DEE601339A46DBE60022F9
S113546000234846079902F0A5FE0028E0D1012355
S11354705B1B1F93984403E7119A32AB9B1A0E935C
S1135480FFF73AF81198FEF79FFE02000E90030012
S1135490FFF7CDF92D2316AAD377984600239A4611
S11354A0FFF735F81F9B1393DA1C02DB9A4500DBE8
S11354B00BE7129B023B12932C22139B48215D1E87
S11354C016AB9B186A46521812781F951A70002D55
S11354D000DAA4E12D212B2316AA52181370092DEA
S11354E000DC4CE116AA3B23944663449A46B14639
S11354F0A046564600E0260028000A2102F046FE97
S1135500741E3031217028000A2102F059FD050073
S11355100928F0DC23004446B0464E469946030071
S11355203033D8B24346023B18709A4500D8B4E1F0
S113553042461B9B4546991A012307315B4201E011
S1135540E85C013321AAD218D0708B42F8D116A995
S11355508C462E224B4662449446FB1A634421AA8D
S113556014999B1A9C460A0062441A930E920129CC
S113557000DC45E1189A0E9B944663441A000E938E
S1135580DB43DB171A40002307921393AEE6012393
S11355905B420A93FEF72DFF3A000699099802F040
S11355A0F3F8002801D0FEF71EFFBC6832AE3CE4DD
S11355B03A000699099802F0E7F8002801D0FEF7AE
S11355C012FF1F9BBC6832AE6AE53A00069909983F
S11355D002F0DAF8002801D0FEF705FFBC6832AE0D
S11355E057E53A000699099802F0CEF8002801D050
S11355F0FEF7F9FE149B1F9ABC689B1A32AE6AE54B
S113560053460793062B01D906230793079B0F954F
S11356100E93002398469A461393244B08941193AF
S1135620FEF778FF2023129A9A431A3B0E929A4669
S1135630F1E523AB1B93049320AB03931FAB0293BD
S11356405346019303234A4600930998079B00F0AD
S11356506BFA03005344119098465546E4E62D2313
S113566016AAD3779846FEF7DBFF802212069446EB
S1135670169B9946159B634407932D231093D7E5F6
S1135680189A149B9446139A63440E93002A00DCE0
S1135690CEE01A00DB43DB171A406723079212930C
S11356A024E6C046E08A0000A48A0000D88A0000EC
S11356B01F9B1393002B00DCD5E05246002A00D038
S11356C092E0E20700D58FE007930E930EE616AB47
S11356D0DB7F0F959846534607930E930023089457
S11356E09A461393FEF710FF119B9846129BA84409
S11356F0472B00D0C4E5E30700D58EE6239B119A1F
S11357009B1A14930E9B472B00D1CBE61F9B13933C
S1135710D2E64442103000DBD0E06E48102605008B
S113572003E00832103C102C38DD103101331560D1
S11357305660B9607B60072BF3DD3A00069909983F
S113574002F022F8002801D0FEF74DFEB9687B680C
S113575032AAE7E73A000699099802F015F80028FA
S113576001D0FEF740FE1F98B9687B6832AA00E6B4
S1135770189A139B944663441A000E938AE72E21C9
S1135780302316AA521813702B0016AA0131303395
S11357905218137022ABE2E6239B85E5A9464846DE
S11357A00919013310605460B96008327B60072B1B
S11357B000DCE1E53A000699099801F0E5FF0028CC
S11357C001D0FEF710FEB9687B6832AAD4E5159BB8
S11357D0002B38DB16ABDB7F9846129B472B2EDC65
S11357E03D4B1193FEF723FF189A139B9446634491
S11357F053441A000E93DB43DB171A40079275E5F6
S113580001232340139300D0B4E60E9AD343DB174D
S11358101A4007926AE52F4A7B6891462DE40123DA
S1135820139A1B399D1A16AA2C335218137056E674
S11358300E9B139A981A431C1A000E932AE7274BBF
S11358401193FEF7F4FE2D2316AAD3779846C4E7E6
S11358500F9B1A1D1B689A46002B36DB4B780F9260
S11358605946FEF79DFD5346002B01D1E30703D5AE
S1135870189B581C0300BBE7012325E716ABD87718
S1135880FEF76CFF16ABD877FFF714F80C23099AD0
S113589013600D3B0A93FEF7ACFD16AA2E23944623
S11358A063445CE616ABD877FEF785FE16ABD87773
S11358B0FEF7DDFD16ABD877FFF77DF80548814686
S11358C06DE716ABD877FEF779FF01235B429A4662
S11358D0C4E7C046F48A0000A88A0000AC8A00002D
S11358E0F0B54E464546DE465746E0B5364D83B0E4
S11358F00600286898460F009146FEF7E9FC334BF2
S11359001C68A4235B00E058002852D043681F2B76
S113591013DC5A1C0192002E28D1019A02339B00F9
S113592042601F502868FEF7D5FC002003B03CBC41
S113593090469946A246AB46F0BD254B002B3DD080
S1135940C820400000E000BF002837D0A422002374
S11359505200A15843600160A05040328350043289
S11359608350013301930023002ED6D09A0092462F
S113597082444A46882154466250C42252009146C9
S113598081444A468739994012688B460A439446B3
S11359904A4661461160842241465200A150022EBB
S11359A0BBD102005C468D32FF3211680C43146097
S11359B0B3E720004D30FF30E050A7E72868FEF73A
S11359C089FC01204042B1E74004002038890000EE
S11359D000000000F0B545468046DE4657464E4678
S11359E04246E0B50C69126985B00B0002910020B3
S11359F0944200DD90E014229446634499464A465A
S1135A00013CA300D6181422424493469B443368B5
S1135A101500591C5B4618680192FCF70BFE031E27
S1135A20009042D0290000274D460020B146A246EE
S1135A303E0004009C462F0008000395634604CFF3
S1135A4015042D0C5D43120C5A43AD192B0CD218BE
S1135A5003682D041904090C0919160C2D0C1204E1
S1135A60491B120C1B0C9B1A0A149B1809041C14C6
S1135A70090C1B04194302C0B945DFD2039B4E46EF
S1135A8099465B461B685446002B0ED15B46019A2F
S1135A90043B9A4204D306E0043B013C9A4202D2FE
S1135AA019680029F8D043461C610299404601F068
S1135AB045FD00282FDB4F460020009B019D01334C
S1135AC000932B6802CF1A04120C10180A04120C4B
S1135AD0821A090C1B0C5B1A11145B18120418149B
S1135AE0120C1B04134308C5BE42EAD20199A30059
S1135AF08C4663441A68002A0DD1043B0A0099427B
S1135B0004D306E0043B013C9A4202D219680029FE
S1135B10F8D043461C61009805B03CBC90469946B9
S1135B20A246AB46F0BDC046F0B557464E46454684
S1135B30DE46E0B5016C99B082461D0016001F00D8
S1135B40002909D00123426C93404A608B6001F024
S1135B50E9FA002352461364B846002F37DB0023CA
S1135B60259A13604246D64B1A409A4218D0002216
S1135B7000233000390002F01DFB00282FD0012340
S1135B80249A1360269B002B00D12AE2CD4818608A
S1135B90013819B03CBC90469946A246AB46F0BDCC
S1135BA0C94B249A1360002E0BD14346180308D125
S1135BB0269BC648002BECD003000833269A1360BA
S1135BC0E7E7269BC248002BE3D0C31CF6E701237A
S1135BD0259A68001360430898461F00C2E716AB75
S1135BE0019317AB009332003B00504601F05CFD7B
S1135BF0434683461A0D00D1D6E13B03B54C1B0B3B
S1135C001C43B54B30009846169B2100994600234F
S1135C1090440F930022B14BFDF786FEB04AB14B7E
S1135C20FDF702FCB04AB14BFCF7BAFD0400404654
S1135C300D0002F0EDFCAE4AAE4BFDF7F5FB0200A1
S1135C400B0020002900FCF7ABFD04000D00FEF75B
S1135C5081F90022039000232000290002F0B0FA09
S1135C60002800D0B1E20123039C0C93162C10D819
S1135C70A149E300C9183200086849683B0002F0F2
S1135C80B3FA002800D11DE32300013B0393002352
S1135C900C934B4642469A1A002306931300013B89
S1135CA0049300D5A1E2039B002B00DA84E29C4616
S1135CB00D930023049A9946110061440491229B98
S1135CC0092B00D98FE10124052B02DD0024043BBC
S1135CD02293229B032B01D100F0CEFC01DC00F0C7
S1135CE092FC229B042B01D100F040FC01230B9376
